:100A8700C0F9A4B0999282F880908883C6A1868E17
:090A9700BF7FFF8183858082840A
:1009470001090001080002120000021C0000021841
:100957000000011401011501021A07D002100064FA
:10096700021E00000120FF02160000030A0000001B
:05097700030D0000006B
:040AA0007F147E0041
:100AA400EF4E600F7D0C7CA9DCFEDDFCEF1F70F0C7
:030AB4001E80EDB4
:010AB700221C
:10090C008D80EF24FB601414601B14602224037090
:10091C0026E5A0541F4480F5A0801CE5A0541F447C
:10092C00A0F5A08012E5A0541F44C0F5A08008E5F6
:0B093C00A0541F44E0F5A053A01F22B0
:100840007C007D0A12080A7C007D0A12080A74875F
:0F0850002DF582740A3CF583E493FD7C007F064E
:10085F00AB078D828C8374017E00A803088005C3CB
:10086F0033CE33CED8F9FDAC067F0612090CAD821C
:10087F00AC830F12090C7F017E00120AA4AF037420
:10088F00017E00A807088005C333CE33CED8F9FD0B
:0F089F00AC067F0612090C7DFF7C000F02090CCE
:0F0B3200E4FAAF027DFF7C0012085F0ABA07F3F6
:010B41002291
:10001E00E51424FE700302014A14700302032B142C
:10002E0070030203A224036003020528C3E51D9595
:10003E0011E5106480F8E51C6480985017900A96BC
:10004E00E493FD7C00E4FF12085F7DC712085B7D20
:10005E00C7020324900A96E493FD7C00E4FF120885
:10006E005F900A99E493FD7C007F0112085F900A6D
:10007E0099E493FD7C007F0212085FD3E51D940F77
:10008E00E51C648094A7401FAE1CAF1D7C277D101D
:10009E0012080A74872FF582740A3EF583E493FDE5
:1000AE007C007F0312085FD3E51D94E7E51C648096
:1000BE0094834026AE1CAF1D7C037DE812080A7C9B
:1000CE00007D0A12080A74872DF582740A3CF583A6
:1000DE00E493FD7C007F0412085FD3E51D9463E575
:1000EE001C648094804026AE1CAF1D7C007D641283
:1000FE00080A7C007D0A12080A74872DF582740A9C
:10010E003CF583E493FD7C007F0512085FD3E51D6B
:10011E009409E51C648094804007AE1CAF1D120844
:10012E0040AE1CAF1D7C007D0A12080A74872DF5A7
:10013E0082740A3CF583E493FD020324E51524FE44
:10014E0070030202050460030205287D8C7C00E426
:10015E00FF12085F900A88E493FD7C007F0112086D
:10016E005F900A99E493FD7C007F0212085F900A6B
:10017E0099E493FD7C007F0312085FAE1AAF1B7CDF
:10018E00037DE81207B57C007D0A1207B574872D32
:10019E00F582740A3CF583E493FD7C007F0412081B
:1001AE005FAE1AAF1B7C007D641207B57C007D0A22
:1001BE001207B574872DF582740A3CF583E493FD1E
:1001CE007C007F0512085FAE1AAF1B7C007D0A1201
:1001DE0007B57C007D0A1207B512084EAE1AAF1B8A
:1001EE007C007D0A1207B574872DF582740A3CF5E2
:1001FE0083E493FD0203247D8C7C00E4FF12085FF0
:10020E00900A89E493FD7C007F0112085F900A99A1
:10021E00E493FD7C007F0212085F900A99E493FD3F
:10022E007C007F0312085FD3E5119400E510648013
:10023E0094804059900A99E493FD7C007F04120843
:10024E005FAE10AF117C007D6412080A7C007D0A3F
:10025E0012080A74872DF582740A3CF583E493FD27
:10026E007C007F0512085FAE10AF11120840AE1071
:10027E00AF117C007D0A12080A74872DF582740A6C
:10028E003CF583E493FD7C007F0712085FC3E51005
:10029E00648094805072C3E49511F519E49510F5BD
:1002AE0018900A97E493FD7C007F0412085FAE1845
:1002BE00AF197C007D641207B57C007D0A1207B56C
:1002CE0074872DF582740A3CF583E493FD7C007FE0
:1002DE000512085FAE18AF197C007D0A1207B57CB7
:1002EE00007D0A1207B512084EAE18AF197C007DBC
:1002FE000A1207B574872DF582740A3CF583E493D0
:10030E00FD7C007F0712085FE511451060030205B2
:10031E0028900A8793FD7C007F07020525E50A5485
:10032E000F900A8793FD7C007F0712085FE50AC4D1
:10033E00540F900A87120859900A97E493FD7C0097
:10034E007F0512085FE50B540F900A8793FD7C0022
:10035E007F0412085FE50BC4540F900A8793FD7C4F
:10036E00007F0312085F900A97E493FD7C007F02E2
:10037E0012085FE50C540F900A8793FD7C007F01F5
:10038E0012085FE50CC4540F900A8793FD7C00E4BD
:10039E00FF020525E51524FE70030204B504600373
:1003AE00020528AE1EAF1F7C007D0A1207B57487AA
:1003BE002DF582740A3CF583E493FD7C007F0712D1
:1003CE00085FD3E51F9409E51E9400401EAE1EAFD4
:1003DE001F7C007D0A1207B57C007D0A1207B574DA
:1003EE00872DF582740A3CF5838003900A991208D2
:1003FE0058D3E51F9463E51E94004021AE1EAF1F37
:10040E007C007D641207B57C007D0A1207B57487E7
:10041E002DF582740A3CF583E493FD80027DFF7C0A
:10042E00007F0512085FD3E51F94E7E51E94034095
:10043E0021AE1EAF1F7C037DE81207B57C007D0A3E
:10044E001207B574872DF582740A3CF583E493FD8B
:10045E0080027DFF7C007F0412085FD3E51F940F9E
:10046E00E51E9427401AAE1EAF1F7C277D10120783
:10047E00B574872FF582740A3EF583E493FD8002EE
:10048E007DFF7C007F0312085F7DFF7C007F0212E0
:10049E00085F900A96E493FD7C007F0112085F7D51
:1004AE00897C00E4FF8070E50D540F900A8793FD60
:1004BE007C007F0712085FE50DC4540F900A871267
:1004CE000859E50E540F900A8793FD7C007F0512A4
:1004DE00085FE50EC4540F900A8793FD7C007F04DD
:1004EE0012085FE50F540F900A8793FD7C007F037F
:1004FE0012085FE50FC4540F900A8793FD7C007FAE
:10050E000212085F900A91E493FD7C007F011208AD
:0D051E005F7D897C00E4FF12085F020B3254
:100A0A005389F0438906758AFF758CFFC28DD28C93
:100A1A0053891F758B3C758DAFC28FD28ED2AFD2E0
:040A2A00A9D2AB2280
:03000B0002000EE2
:0D000E00C0E00513E51370020512D0E032CA
:03001B0002064298
:10064200C0E0C0F0C083C082C0D075D000C000C07E
:1006520002C003C004C005C006C007758B3C758D7F
:10066200AF0509E509540370660508E514640170D5
:1006720018E50820E01312001EE52030E0055320A3
:10068200FE800343200112001EE51464016006434C
:10069200200112001EC3E51C648094805005532083
:1006A200FD8029D3E51D951BE51C951A401BE50825
:1006B20020E016E520540213FFBF010812001E536A
:1006C20020FD800B432002800343200212001EE51E
:1006D20020FD7C007F0412090CE509B41430750971
:1006E20000C3E5139511F51DE5129510F51CC3E540
:1006F2001F951DE51E951C500F851C1E851D1F850F
:100702000A0D850B0E850C0F751200751300D007AC
:10071200D006D005D004D003D002D000D0D0D082F1
:07072200D083D0F0D0E032DB
:1009B100E4F521FD7F8E120AE8E4F521E521900A94
:1009C1009D93FF740A2521F8E6FD120AE80521E549
:0D09D10021C3940340E67D807F8E020AE87A
:100A2E00E4F521F521E521900A9A93FF12097D74D0
:100A3E000A2521F8A6070521E521C3940340E60205
:020A4E00001E88
:100AB8007DFF7C007F0412090CE4FD0F12090C1263
:080AC8000B32120A0A0209B107
:10052B00C2C4D2B5D2B4D2C2D2B3D2B2D2B1D2B08B
:10053B0020B21B120AA030B2FD12001EE515B40149
:10054B00057515028008E515B4020375150120B376
:10055B001F120AA030B3FD12001EE514C394045001
:10056B000405148008E514B404067514017515010F
:10057B00C2C2D2B5D2B4D2C4D2B3D2B2D2B1D2B03B
:10058B0020B259120AA030B2FD12001EE514B402BB
:10059B0023E515B4011EE51BB4E80DE51AB40308F9
:1005AB00751A03751BE8800C7418251BF51B74FC5E
:1005BB00351AF51AE514B40223E515B4021EE5113C
:1005CB00B47C0DE510B4FC087510FC75117C800C27
:1005DB00749C2511F51174FF3510F51020B35712CB
:1005EB000AA030B3FD12001EE514B40223E515B4C6
:1005FB00011EE51BB4280DE51AB42308751A2375E3
:10060B001B28800C74E8251BF51B7403351AF51A8F
:10061B00E514B40221E515B4021CE511B4840CE514
:10062B0010B403077510037511842274642511F53A
:07063B0011E43510F5102257
:1008AE00120B427F901209DE120B0F7F431209DEEC
:1008BE00120B0FC3E51C648094805003E48032C396
:1008CE00E51D94F4E51C6480948150047F338022EE
:1008DE00D3E51D94F4E51C64809481401BE51B2434
:1008EE000CFDE51A34FEFC7E007FCC1207B5EF241A
:0E08FE0033FF1209DE120B0F120B5102001E07
:100B2100120AB812052B12001E120A2E1208AE80EC
:010B3100F2D1
:100AFC00E4FEC297EF1392A3EFC313FFD2970EBE7F
:020B0C0008F0EF
:010B0E0022C4
:100AE800C29300C29700D29300120AFCAF05120A03
:040AF800FCC2932287
:10097D00E4FDC29300C29700D29300120AFCE4FF7B
:10098D00C297EDC313FD30A303430580D2970FBF6C
:10099D0008EEC29300C29700D29700C2A300D2A363
:0309AD0000AF0593
:0109B0002224
:040A6D00D2A07F0A8A
:100A7100000000000000000000000000000000AEC7
:060A8100071FEE70EB22DE
:0F0B4200D2A1120A6DC2A17F0A120A71C2A022AB
:0C0B5100C2A1120A6DD2A17F0A020A7133
:0209DE00AD0763
:1009E000E4FCC2A07F0A120A71ED30E704D2A180B4
:1009F00002C2A17F0A120A71D2A0ED25E0FD7F0A92
:090A0000120A710CBC08DBC2A053
:010A090022CA
:100A5000E4FC120A6DED25E0FD30A103430501C25F
:0C0A6000A07F0A120A710CBC08E8AF0568
:010A6C002267
:100B0F00120A6DA2A1E433FDC2A07F0A120A71AFCF
:010B1F0005D0
:010B200022B2
:100AD000C2A0EF24FF92A17F0A120A71120A6DC20E
:080AE000A0D2A17F0A020A71F5
:03000000020729CB
:0C072900787FE4F6D8FD7581210207708E
:1007B500BC000BBE0029EF8DF084FFADF022E4CC28
:1007C500F875F008EF2FFFEE33FEEC33FCEE9DECF1
:1007D500984005FCEE9DFE0FD5F0E9E4CEFD22ED37
:1007E500F8F5F0EE8420D21CFEADF075F008EF2F81
:1007F500FFED33FD4007985006D5F0F222C398FD72
:050805000FD5F0EA220E
:10080A00C2D5EC30E709B2D5E4C39DFDE49CFCEE09
:10081A0030E715B2D5E4C39FFFE49EFE1207B5C3C5
:10082A00E49DFDE49CFC80031207B530D507C3E4C0
:06083A009FFFE49EFE2278
:10073500020B21E493A3F8E493A34003F68001F2AE
:1007450008DFF48029E493A3F85407240CC8C333C5
:10075500C4540F4420C8834004F456800146F6DF94
:10076500E4800B0102040810204080900947E47ED4
:10077500019360BCA3FF543F30E509541FFEE49389
:10078500A360010ECF54C025E060A840B8E493A350
:10079500FAE493A3F8E493A3C8C582C8CAC583CA7B
:1007A500F0A3C8C582C8CAC583CADFE9DEE780BE33
:01097C00007A
:00000001FF
